:100000000C9434000C9440000C943E000C943E0080
:100010000C943E000C943E000C943E000C943E0068
:100020000C943E000C943E000C943E000C943E0058
:100030000C943E000C943E000C943E000C943E0048
:100040000C943E000C943E000C943E000C943E0038
:100050000C943E000C943E000C943E000C943E0028
:100060000C943E000C943E0011241FBECFEFD8E04C
:10007000DEBFCDBF0E945B000C9478000C940000A2
:100080001F920F920FB60F9211242F938F939F936D
:100090005C9A2FEF83ED90E3215080409040E1F790
:1000A00000C000005C9A9F918F912F910F900FBE1E
:1000B0000F901F90189581E08AB91BB88DBB83E023
:1000C0008093690078945D9A2FEF89E698E121503A
:1000D00080409040E1F700C000005D982FEF89E676
:1000E00098E1215080409040E1F700C00000EBCF44
:0400F000F894FFCFB2
:00000001FF
