:100000000C9434000C9446000C9446000C9446006A
:100010000C9446000C9446000C9446000C94460048
:100020000C9446000C9446000C9446000C94460038
:100030000C9446000C9446000C9446000C94460028
:100040000C9446000C9446000C9446000C94460018
:100050000C9446000C9446000C9446000C94460008
:100060000C9446000C94460011241FBECFEFD8E03C
:10007000DEBFCDBF21E0A0E0B1E001C01D92A23003
:10008000B207E1F70E9448000C949D000C94000018
:100090001AB88FEF87B98BB9429A499947C08091B6
:1000A000000190910101019690930101809300015C
:1000B0004298419A2FEF89E698E121508040904084
:1000C000E1F700C0000041982FEF89E698E1215048
:1000D00080409040E1F700C00000419A2FEF89E690
:1000E00098E1215080409040E1F700C00000419825
:1000F0002FEF89E698E1215080409040E1F700C061
:100100000000419A2FEF89E698E12150804090400D
:10011000E1F700C0000041982FEF89E698E12150F7
:1001200080409040E1F700C00000409A80910001BB
:0E01300080FDB3CF429A4098B0CFF894FFCF35
:00000001FF
