:100000000C9434000C9446000C9446000C9446006A
:100010000C9446000C9446000C9446000C94460048
:100020000C9446000C9446000C9446000C94460038
:100030000C9446000C9446000C9446000C94460028
:100040000C9446000C9446000C9446000C94460018
:100050000C9446000C9446000C9446000C94460008
:100060000C9446000C94460011241FBECFEFD8E03C
:10007000DEBFCDBF21E0A0E0B1E001C01D92A33002
:10008000B207E1F70E9448000C948C000C94000029
:100090001AB88FEF84B98BB915B81092020110927B
:1000A00001011092000181E0499903C02B9A8093CD
:1000B00002014A9903C02A9A809301014C9903C016
:1000C000299A8093000190910201992339F090912F
:1000D0000001992319F02B981092020190910101CF
:1000E000992339F090910001992319F02A981092E0
:1000F0000101909102019923B9F290910101992394
:1001000099F290910001992379F22B982A981092F4
:0C011000020110920101C8CFF894FFCF4B
:00000001FF
