:100000000C9434000C9446000C9446000C9446006A
:100010000C9446000C9446000C9446000C94460048
:100020000C9446000C9446000C9446000C94460038
:100030000C9446000C9446000C9446000C94460028
:100040000C9446000C9446000C9446000C94460018
:100050000C9446000C9446000C9446000C94460008
:100060000C9446000C94460011241FBECFEFD8E03C
:10007000DEBFCDBF21E0A0E0B1E001C01D92A13004
:10008000B207E1F70E9448000C9474000C94000041
:1000900084B184B91AB815B88FEF8BB981E099B1E2
:1000A000109200012D9A2C984A9B2D984C9B80937E
:1000B000000190910001992391F32D982C9A2FEF34
:1000C00039E698E1215030409040E1F700C000004F
:1000D0002C982FEF39E698E1215030409040E1F71D
:0C00E00000C000002C9ADBCFF894FFCF8A
:00000001FF
