:100000000C9435000C9422020C945D000C945D005D
:100010000C945D000C945D000C945D000C945D00EC
:100020000C945D000C945D000C945D000C945D00DC
:100030000C945D000C945D000C945B020C945D00CC
:100040000C945D000C945D000C94F0010C94CA01BA
:100050000C945D000C945D000C945D000C945D00AC
:100060000C945D000C945D00E30211241FBECFEFE1
:10007000D8E0DEBFCDBF11E0A0E0B1E0E8EBFAE0F0
:1000800002C005900D92A832B107D9F721E0A8E28D
:10009000B1E001C01D92AD3CB207E1F710E0C5E34D
:1000A000D0E004C02197FE010E945405C433D1075B
:1000B000C9F70E9410030C945A050C940000AF92EB
:1000C000BF92CF92DF92EF92FF920F931F93CF9345
:1000D000DF936C017B018B01040F151FEB015E01A7
:1000E000AE18BF08C017D10759F06991D601ED913C
:1000F000FC910190F081E02DC6010995892B79F7DB
:10010000C501DF91CF911F910F91FF90EF90DF908C
:10011000CF90BF90AF900895FC01538D448D252F53
:1001200030E0842F90E0821B930B541710F0CF9691
:10013000089501970895FC01918D828D981761F0C3
:10014000A28DAE0FBF2FB11D5D968C91928D9F5FDA
:100150009F73928F90E008958FEF9FEF0895FC01B9
:10016000918D828D981731F0828DE80FF11D858D6C
:1001700090E008958FEF9FEF0895FC01918D228DFF
:10018000892F90E0805C9F4F821B91098F73992784
:100190000895FC01A48DA80FB92FB11DA35ABF4F1C
:1001A0002C91848D90E001968F739927848FA68976
:1001B000B7892C93A089B1898C91837080648C93CA
:1001C000938D848D981306C00288F389E02D808179
:1001D0008F7D80830895EF92FF920F931F93CF93AB
:1001E000DF93EC0181E0888F9B8D8C8D98131AC072
:1001F000E889F989808185FF15C09FB7F894EE8959
:10020000FF896083E889F9898081837080648083B5
:100210009FBF81E090E0DF91CF911F910F91FF9000
:10022000EF900895F62E0B8D10E00F5F1F4F0F73A8
:100230001127E02E8C8D8E110CC00FB607FCFACF63
:10024000E889F989808185FFF5CFCE010E94C90038
:10025000F1CFEB8DEC0FFD2FF11DE35AFF4FF08234
:100260009FB7F8940B8FEA89FB8980818062CFCF9A
:10027000CF93DF93EC01888D8823B9F0AA89BB89DD
:10028000E889F9898C9185FD03C0808186FD0DC0C8
:100290000FB607FCF7CF8C9185FFF2CF808185FFE9
:1002A000EDCFCE010E94C900E9CFDF91CF91089533
:1002B000FC0101900020E9F73197AF01481B590B71
:1002C000BC0180E391E00C945F008F929F92AF920B
:1002D000BF920F931F93CF93DF93CDB7DEB7A19754
:1002E0000FB6F894DEBF0FBECDBF19A2423008F49E
:1002F0004AE08E010F5D1F4F842E912CB12CA12C52
:10030000A50194010E943205E62FB901CA01EA3025
:10031000F4F4E05DD801EE938D01232B242B252BE3
:1003200079F790E080E0109719F0CD010E94580114
:10033000A1960FB6F894DEBF0FBECDBFDF91CF916F
:100340001F910F91BF90AF909F908F900895E95C9F
:10035000E1CFCF92DF92EF92FF92CF93DF936B01C9
:100360007C016DE280E391E00E94EB00EC016627E6
:100370007727CB016C197D098E099F094AE00E94FD
:1003800065018C0F9D1FDF91CF91FF90EF90DF9063
:10039000CF9008951F920F920FB60F9211242F93B2
:1003A0003F934F935F936F937F938F939F93AF93FD
:1003B000BF93EF93FF9380E391E00E94C900FF9108
:1003C000EF91BF91AF919F918F917F916F915F91CD
:1003D0004F913F912F910F900FBE0F901F90189546
:1003E0001F920F920FB60F9211242F938F939F930A
:1003F000EF93FF93E0914001F09141018081E09102
:100400004601F091470182FD1BC090818091490116
:100410008F5F8F7320914A01821741F0E09149016B
:10042000F0E0E05DFE4F958F80934901FF91EF91E1
:100430009F918F912F910F900FBE0F901F90189545
:100440008081F4CF1F920F920FB60F9211248F93D9
:100450009F9380912E0190912F01019690932F01EF
:1004600080932E0110922D0110922C011092B30056
:10047000109289001092880010928B0010928A00CE
:1004800080912E0180FD0AC081E0809300019F9140
:100490008F910F900FBE0F901F9018951092B30080
:1004A000109289001092880010928B0010928A009E
:1004B00010920001ECCF1F920F920FB60F921124F1
:1004C0002F938F939F9380912C0190912D010196F2
:1004D00090932D0180932C0120910001222309F497
:1004E00057C0019761F480912A018093B300109264
:1004F00089001092880010928B0010928A008091DF
:100500002C0190912D01803D974071F41092B30021
:1005100080912A0190912B0190938900809388000B
:1005200010928B0010928A0080912C0190912D01E5
:100530008C3A9D4071F41092B30010928900109291
:10054000880080912A0190912B0190938B008093D9
:100550008A0080912C0190912D01803A9F4081F476
:1005600080912A018093B300109289001092880034
:1005700010928B0010928A0010922D0110922C0183
:100580009F918F912F910F900FBE0F901F901895F4
:100590008436910571F41092B30010928900109284
:1005A000880080912A0190912B0190938B00809379
:1005B0008A0080912C0190912D01883C910501F7D2
:1005C0001092B300D1CFE0E3F1E01382128288EE03
:1005D00093E0A0E0B0E084839583A683B78385E0B1
:1005E00091E09183808385EC90E09587848784EC0B
:1005F00090E09787868780EC90E0918B808B81ECF0
:1006000090E0938B828B82EC90E0958B848B86ECD0
:1006100090E0978B868B118E128E138E148E089518
:1006200014B884B18E6084B91AB88FEF8BB992E098
:100630009093690081E08DBB84B5826084BD85B5EF
:10064000846085BD81EC87BD80916E00826080935F
:100650006E0080918000836A809380008091810089
:100660008160809381008091B00083688093B000A6
:100670008091B10081608093B100E0914001F091E0
:1006800041019083E0913C01F0913D011082E091A5
:100690003E01F0913F018FEC808310924801E09180
:1006A0004401F091450186E08083E0914201F091A0
:1006B0004301808180618083E0914201F091430198
:1006C000808188608083E0914201F09143018081C4
:1006D00080688083E0914201F091430180818F7DA9
:1006E000808380E480937C0087E880937A0078940C
:1006F00080917C00887F80937C0080917A00806468
:1007000080937A0080917A0084FFFCCF48E090E0EB
:1007100080E020917A00206420937A0020917A0072
:1007200024FFFCCF509178002091790030E0322FE7
:100730002227250F311D820F931F415051F723E0CF
:10074000959587952A95E1F7909329018093280143
:100750002FEF80E792E0215080409040E1F700C009
:10076000000083E191E00E9458016091280170919E
:100770002901072E000C880B990B97FF3AC00E94A5
:10078000A9018AE191E00E9458018DE191E00E9467
:10079000580160912A0170912B01072E000C880BE3
:1007A000990B97FF2AC00E94A9018AE191E00E945B
:1007B00058012FEF81EE94E0215080409040E1F706
:1007C00000C000006091280170912901072E000CE3
:1007D000880B990B0E94390420E030E040E85EE38A
:1007E0000E949D040E94010470932B0160932A01D2
:1007F0007FCF4AE00E946501C4CF4AE00E946501B4
:10080000D4CF0E9408046894B1110C949704089501
:100810000E947C0488F09F5798F0B92F9927B75110
:10082000B0F0E1F0660F771F881F991F1AF0BA9594
:10083000C9F714C0B13091F00E949604B1E0089558
:100840000C949604672F782F8827B85F39F0B93F4A
:10085000CCF3869577956795B395D9F73EF4909547
:100860008095709561957F4F8F4F9F4F0895E894C5
:1008700009C097FB3EF490958095709561957F4FE8
:100880008F4F9F4F9923A9F0F92F96E9BB27939596
:10089000F695879577956795B795F111F8CFFAF4A6
:1008A000BB0F11F460FF1BC06F5F7F4F8F4F9F4FD7
:1008B00016C0882311F096E911C0772321F09EE835
:1008C000872F762F05C0662371F096E8862F70E09B
:1008D00060E02AF09A95660F771F881FDAF7880F75
:1008E0009695879597F9089557FD9058440F551F91
:1008F00059F05F3F71F04795880F97FB991F61F0A2
:100900009F3F79F087950895121613061406551F18
:10091000F2CF4695F1DF08C0161617061806991F84
:10092000F1CF86957105610508940895E894BB2779
:1009300066277727CB0197F908950E94B0040C949D
:1009400021050E94130538F00E941A0520F0952316
:1009500011F00C940A050C94100511240C949704C2
:100960000E94740470F3959FC1F3950F50E0551FDA
:10097000629FF001729FBB27F00DB11D639FAA27F4
:10098000F00DB11DAA1F649F6627B00DA11D661F43
:10099000829F2227B00DA11D621F739FB00DA11D64
:1009A000621F839FA00D611D221F749F3327A00D1E
:1009B000611D231F849F600D211D822F762F6A2FBA
:1009C00011249F5750409AF0F1F088234AF0EE0F1F
:1009D000FF1FBB1F661F771F881F91505040A9F74C
:1009E0009E3F510580F00C940A050C9497045F3FDC
:1009F000E4F3983ED4F3869577956795B795F79588
:100A0000E7959F5FC1F7FE2B880F911D96958795FF
:100A100097F9089597F99F6780E870E060E008957E
:100A20009FEF80EC089500240A9416161706180606
:100A30000906089500240A941216130614060506E2
:100A40000895092E0394000C11F4882352F0BB0F73
:100A500040F4BF2B11F460FF04C06F5F7F4F8F4FD6
:100A60009F4F0895A1E21A2EAA1BBB1BFD010DC0CA
:100A7000AA1FBB1FEE1FFF1FA217B307E407F5074E
:100A800020F0A21BB30BE40BF50B661F771F881F2A
:100A9000991F1A9469F760957095809590959B01C0
:100AA000AC01BD01CF010895EE0FFF1F0590F49139
:080AB000E02D0994F894FFCF3A
:100AB8000100000000EB005F008C003801BD009BC6
:100AC80000AF00414443303A20000D0A00526573DC
:080AD8006973746F723A20008B
:00000001FF
