:100000000C9434000C9453000C9451000C94510047
:100010000C9451000C9451000C9451000C9451001C
:100020000C9451000C9451000C9451000C9451000C
:100030000C9451000C9451000C948C000C945100C1
:100040000C9451000C9451000C9451000C945100EC
:100050000C9451000C9451000C9451000C945100DC
:100060000C9451000C94510011241FBECFEFD8E026
:10007000DEBFCDBF11E0A0E0B1E0E2EBF2E002C0F4
:1000800005900D92A230B107D9F721E0A2E0B1E0CE
:1000900001C01D92A630B207E1F70E940C010C943A
:1000A00057010C9400001F920F920FB60F9211246B
:1000B0008F939F93809104019091050101969093F5
:1000C0000501809304011092030110920201109225
:1000D000B300109289001092880010928B00109249
:1000E0008A008091040180FD0AC081E080930001B4
:1000F0009F918F910F900FBE0F901F9018951092A7
:10010000B300109289001092880010928B00109218
:100110008A0010920001ECCF1F920F920FB60F923F
:1001200011242F938F939F9380910201909103014B
:1001300001969093030180930201209100012223F4
:1001400009F451C0019759F48FEF8093B3001092D6
:1001500089001092880010928B0010928A00809182
:10016000020190910301803D974061F41092B30029
:100170008FEF90E0909389008093880010928B001D
:1001800010928A0080910201909103018C3A9D4067
:1001900061F41092B30010928900109288008FEFE2
:1001A00090E090938B0080938A008091020190915F
:1001B0000301803A9F4079F48FEF8093B30010924F
:1001C00089001092880010928B0010928A00109281
:1001D0000301109202019F918F912F910F900FBEFA
:1001E0000F901F9018958436910561F41092B3001A
:1001F00010928900109288008FEF90E090938B000E
:1002000080938A008091020190910301883C9105BE
:1002100011F71092B300D3CF14B884B18E6084B9B3
:100220001AB88FEF8BB982E08093690081E08DBBB3
:1002300084B5826084BD85B5846085BD81EC87BD51
:1002400080916E00826080936E0080918000836A4E
:1002500080938000809181008160809381008091F3
:10026000B00083688093B0008091B100816080937A
:10027000B10017B810927C0080917C00826080935E
:100280007C0080917C00806480937C0080917A0067
:10029000806880937A0080917A00836080937A00EE
:1002A00080917A00806480937A007894FFCFF894EC
:0202B000FFCF7E
:0202B200010049
:00000001FF
