:020000040000FA
:100000000C9434000C9453000C9451000C94510047
:100010000C9451000C9451000C9451000C9451001C
:100020000C9451000C9451000C9451000C9451000C
:100030000C9451000C9451000C948C000C945100C1
:100040000C9451000C9451000C9451000C945100EC
:100050000C9451000C9451000C9451000C945100DC
:100060000C9451000C94510011241FBECFEFD8E026
:10007000DEBFCDBF11E0A0E0B1E0E2EBF2E002C0F4
:1000800005900D92A230B107D9F721E0A2E0B1E0CE
:1000900001C01D92A630B207E1F70E940C010C943A
:1000A00057010C9400001F920F920FB60F9211246B
:1000B0008F939F93809104019091050101969093F5
:1000C0000501809304011092030110920201109225
:1000D000B300109289001092880010928B00109249
:1000E0008A008091040180FD0AC081E080930001B4
:1000F0009F918F910F900FBE0F901F9018951092A7
:10010000B300109289001092880010928B00109218
:100110008A0010920001ECCF1F920F920FB60F923F
:1001200011242F938F939F9380910201909103014B
:1001300001969093030180930201209100012223F4
:1001400009F451C0019759F48FEF8093B3001092D6
:1001500089001092880010928B0010928A00809182
:10016000020190910301803D974061F41092B30029
:100170008FEF90E0909389008093880010928B001D
:1001800010928A0080910201909103018C3A9D4067
:1001900061F41092B30010928900109288008FEFE2
:1001A00090E090938B0080938A008091020190915F
:1001B0000301803A9F4079F48FEF8093B30010924F
:1001C00089001092880010928B0010928A00109281
:1001D0000301109202019F918F912F910F900FBEFA
:1001E0000F901F9018958436910561F41092B3001A
:1001F00010928900109288008FEF90E090938B000E
:1002000080938A008091020190910301883C9105BE
:1002100011F71092B300D3CF14B884B18E6084B9B3
:100220001AB88FEF8BB982E08093690081E08DBBB3
:1002300084B5826084BD85B5846085BD81EC87BD51
:1002400080916E00826080936E0080918000836A4E
:1002500080938000809181008160809381008091F3
:10026000B00083688093B0008091B100816080937A
:10027000B10017B810927C0080917C00826080935E
:100280007C0080917C00806480937C0080917A0067
:10029000806880937A0080917A00836080937A00EE
:1002A00080917A00806480937A007894FFCFF894EC
:0402B000FFCF01007B
:107E0000112484B714BE81FFF0D085E080938100F7
:107E100082E08093C00088E18093C10086E0809377
:107E2000C20080E18093C4008EE0C9D0259A86E02C
:107E300020E33CEF91E0309385002093840096BBD3
:107E4000B09BFECF1D9AA8958150A9F7CC24DD24C4
:107E500088248394B5E0AB2EA1E19A2EF3E0BF2EE7
:107E6000A2D0813461F49FD0082FAFD0023811F036
:107E7000013811F484E001C083E08DD089C08234E0
:107E800011F484E103C0853419F485E0A6D080C0E4
:107E9000853579F488D0E82EFF2485D0082F10E0AE
:107EA000102F00270E291F29000F111F8ED06801E7
:107EB0006FC0863521F484E090D080E0DECF843638
:107EC00009F040C070D06FD0082F6DD080E0C81688
:107ED00080E7D80618F4F601B7BEE895C0E0D1E017
:107EE00062D089930C17E1F7F0E0CF16F0E7DF06D8
:107EF00018F0F601B7BEE89568D007B600FCFDCFD4
:107F0000A601A0E0B1E02C9130E011968C91119780
:107F100090E0982F8827822B932B1296FA010C0160
:107F200087BEE89511244E5F5F4FF1E0A038BF0790
:107F300051F7F601A7BEE89507B600FCFDCF97BE46
:107F4000E89526C08437B1F42ED02DD0F82E2BD052
:107F50003CD0F601EF2C8F010F5F1F4F84911BD097
:107F6000EA94F801C1F70894C11CD11CFA94CF0C13
:107F7000D11C0EC0853739F428D08EE10CD085E9AC
:107F80000AD08FE07ACF813511F488E018D01DD067
:107F900080E101D065CF982F8091C00085FFFCCF94
:107FA0009093C60008958091C00087FFFCCF809118
:107FB000C00084FD01C0A8958091C6000895E0E648
:107FC000F0E098E1908380830895EDDF803219F02E
:107FD00088E0F5DFFFCF84E1DECF1F93182FE3DFCA
:107FE0001150E9F7F2DF1F91089580E0E8DFEE27F6
:047FF000FF270994CA
:027FFE00040479
:00000001FF
