:100000000C9434000C9453000C9451000C94510047
:100010000C9451000C9451000C9451000C9451001C
:100020000C9451000C9451000C9451000C9451000C
:100030000C9451000C9451000C947C000C945100D1
:100040000C9451000C9451000C9451000C945100EC
:100050000C9451000C9451000C9451000C945100DC
:100060000C9451000C94510011241FBECFEFD8E026
:10007000DEBFCDBF11E0A0E0B1E0EAEDF1E002C0EB
:1000800005900D92A230B107D9F721E0A2E0B1E0CE
:1000900001C01D92A630B207E1F70E94D0000C9477
:1000A000EB000C9400001F920F920FB60F921124D8
:1000B0008F939F93809104019091050101969093F5
:1000C000050180930401109203011092020185B191
:1000D00015B88091040180FD0AC081E08093000181
:1000E0009F918F910F900FBE0F901F90189585B123
:1000F00015B810920001F4CF1F920F920FB60F9215
:1001000011242F938F939F9380910201909103016B
:100110000196909303018093020120910001222314
:10012000A1F1019721F485B198E0892785B98091E3
:10013000020190910301803D974041F485B198E020
:10014000892785B985B192E0892785B98091020117
:10015000909103018C3A9D4041F485B192E089274A
:1001600085B985B194E0892785B980910201909184
:100170000301803A9F4061F485B194E0892785B9F5
:10018000109203011092020103C08C329140A1F33E
:100190009F918F912F910F900FBE0F901F901895E8
:1001A00014B884B18E6084B91AB88FEF8BB982E02D
:1001B0008093690081E08DBB84B5826084BD85B584
:1001C000846085BD81EC87BD80916E0082608093E4
:0A01D0006E007894FFCFF894FFCF83
:0201DA00010022
:00000001FF
